{
  "_format": "hh-sol-artifact-1",
  "contractName": "transfer",
  "sourceName": "contracts/transfer.sol",
  "abi": [
    {
      "inputs": [],
      "stateMutability": "nonpayable",
      "type": "constructor"
    },
    {
      "inputs": [],
      "name": "balanceOfContract",
      "outputs": [
        {
          "internalType": "uint256",
          "name": "",
          "type": "uint256"
        }
      ],
      "stateMutability": "view",
      "type": "function"
    },
    {
      "inputs": [
        {
          "internalType": "address payable",
          "name": "addr",
          "type": "address"
        },
        {
          "internalType": "uint256",
          "name": "value",
          "type": "uint256"
        }
      ],
      "name": "sendMoney",
      "outputs": [],
      "stateMutability": "payable",
      "type": "function"
    },
    {
      "stateMutability": "payable",
      "type": "receive"
    }
  ],
  "bytecode": "0x608060405234801561001057600080fd5b50336000806101000a81548173ffffffffffffffffffffffffffffffffffffffff021916908373ffffffffffffffffffffffffffffffffffffffff1602179055506102e8806100606000396000f3fe60806040526004361061002d5760003560e01c8063e6c7c45614610039578063ee4ae2c91461006457610034565b3661003457005b600080fd5b34801561004557600080fd5b5061004e610080565b60405161005b91906101cd565b60405180910390f35b61007e6004803603810190610079919061013f565b610088565b005b600047905090565b4781106100ca576040517f08c379a00000000000000000000000000000000000000000000000000000000081526004016100c1906101ad565b60405180910390fd5b8173ffffffffffffffffffffffffffffffffffffffff166108fc829081150290604051600060405180830381858888f19350505050158015610110573d6000803e3d6000fd5b505050565b60008135905061012481610284565b92915050565b6000813590506101398161029b565b92915050565b6000806040838503121561015257600080fd5b600061016085828601610115565b92505060206101718582860161012a565b9150509250929050565b60006101886024836101e8565b915061019382610235565b604082019050919050565b6101a78161022b565b82525050565b600060208201905081810360008301526101c68161017b565b9050919050565b60006020820190506101e2600083018461019e565b92915050565b600082825260208201905092915050565b60006102048261020b565b9050919050565b600073ffffffffffffffffffffffffffffffffffffffff82169050919050565b6000819050919050565b7f636f6e747261637420646f65736e2774206861766520656e6f7567682062616c60008201527f616e636500000000000000000000000000000000000000000000000000000000602082015250565b61028d816101f9565b811461029857600080fd5b50565b6102a48161022b565b81146102af57600080fd5b5056fea26469706673582212201f12cc3e4739caf51301657f7d3b2e4708cfc262a8b9f38f79d051497517745564736f6c63430008040033",
  "linkReferences": {},
  "deployedLinkReferences": {}
}