{
  "_format": "hh-sol-artifact-1",
  "contractName": "transfer",
  "sourceName": "contracts/transfer.sol",
  "abi": [
    {
      "inputs": [],
      "stateMutability": "nonpayable",
      "type": "constructor"
    },
    {
      "stateMutability": "payable",
      "type": "fallback"
    },
    {
      "inputs": [],
      "name": "balanceOfContract",
      "outputs": [
        {
          "internalType": "uint256",
          "name": "",
          "type": "uint256"
        }
      ],
      "stateMutability": "view",
      "type": "function"
    },
    {
      "inputs": [
        {
          "internalType": "address payable",
          "name": "addr",
          "type": "address"
        },
        {
          "internalType": "uint256",
          "name": "value",
          "type": "uint256"
        }
      ],
      "name": "sendMoney",
      "outputs": [],
      "stateMutability": "payable",
      "type": "function"
    },
    {
      "stateMutability": "payable",
      "type": "receive"
    }
  ],
  "bytecode": "0x608060405234801561001057600080fd5b50336000806101000a81548173ffffffffffffffffffffffffffffffffffffffff021916908373ffffffffffffffffffffffffffffffffffffffff1602179055506102e5806100606000396000f3fe60806040526004361061002d5760003560e01c8063e6c7c45614610036578063ee4ae2c91461006157610034565b3661003457005b005b34801561004257600080fd5b5061004b61007d565b60405161005891906101ca565b60405180910390f35b61007b6004803603810190610076919061013c565b610085565b005b600047905090565b4781106100c7576040517f08c379a00000000000000000000000000000000000000000000000000000000081526004016100be906101aa565b60405180910390fd5b8173ffffffffffffffffffffffffffffffffffffffff166108fc829081150290604051600060405180830381858888f1935050505015801561010d573d6000803e3d6000fd5b505050565b60008135905061012181610281565b92915050565b60008135905061013681610298565b92915050565b6000806040838503121561014f57600080fd5b600061015d85828601610112565b925050602061016e85828601610127565b9150509250929050565b60006101856024836101e5565b915061019082610232565b604082019050919050565b6101a481610228565b82525050565b600060208201905081810360008301526101c381610178565b9050919050565b60006020820190506101df600083018461019b565b92915050565b600082825260208201905092915050565b600061020182610208565b9050919050565b600073ffffffffffffffffffffffffffffffffffffffff82169050919050565b6000819050919050565b7f636f6e747261637420646f65736e2774206861766520656e6f7567682062616c60008201527f616e636500000000000000000000000000000000000000000000000000000000602082015250565b61028a816101f6565b811461029557600080fd5b50565b6102a181610228565b81146102ac57600080fd5b5056fea2646970667358221220d16d8b84971fd9306e3f17f178d9459e380b922efb99484b001abd8f335bd25564736f6c63430008040033",
  "linkReferences": {},
  "deployedLinkReferences": {}
}